{
  "_format": "hh-sol-artifact-1",
  "contractName": "SenryuContract",
  "contractAddress": "0x0604f2D6B7981FEdA8d57089f2055aae37107C95",
  "sourceName": "contracts/Senryu.sol",
  "abi": [
    {
      "anonymous": false,
      "inputs": [
        {
          "indexed": false,
          "internalType": "string",
          "name": "first",
          "type": "string"
        },
        {
          "indexed": false,
          "internalType": "string",
          "name": "second",
          "type": "string"
        },
        {
          "indexed": false,
          "internalType": "string",
          "name": "end",
          "type": "string"
        },
        {
          "indexed": false,
          "internalType": "string",
          "name": "poet",
          "type": "string"
        },
        {
          "indexed": false,
          "internalType": "uint256",
          "name": "id",
          "type": "uint256"
        }
      ],
      "name": "SenryuData",
      "type": "event"
    },
    {
      "anonymous": false,
      "inputs": [
        {
          "indexed": false,
          "internalType": "uint256",
          "name": "count",
          "type": "uint256"
        }
      ],
      "name": "totalLikeCount",
      "type": "event"
    },
    {
      "inputs": [
        {
          "internalType": "uint256",
          "name": "_id",
          "type": "uint256"
        }
      ],
      "name": "addLikeCount",
      "outputs": [],
      "stateMutability": "nonpayable",
      "type": "function"
    },
    {
      "inputs": [],
      "name": "getLength",
      "outputs": [
        {
          "internalType": "uint256",
          "name": "",
          "type": "uint256"
        }
      ],
      "stateMutability": "view",
      "type": "function"
    },
    {
      "inputs": [
        {
          "internalType": "address",
          "name": "_owner",
          "type": "address"
        }
      ],
      "name": "getOwnerToIds",
      "outputs": [
        {
          "internalType": "uint256[]",
          "name": "",
          "type": "uint256[]"
        }
      ],
      "stateMutability": "view",
      "type": "function"
    },
    {
      "inputs": [
        {
          "internalType": "string",
          "name": "_first",
          "type": "string"
        },
        {
          "internalType": "string",
          "name": "_second",
          "type": "string"
        },
        {
          "internalType": "string",
          "name": "_end",
          "type": "string"
        },
        {
          "internalType": "string",
          "name": "_poet",
          "type": "string"
        }
      ],
      "name": "mintSenryu",
      "outputs": [],
      "stateMutability": "nonpayable",
      "type": "function"
    },
    {
      "inputs": [
        {
          "internalType": "address",
          "name": "",
          "type": "address"
        },
        {
          "internalType": "uint256",
          "name": "",
          "type": "uint256"
        }
      ],
      "name": "ownerToSenryu",
      "outputs": [
        {
          "internalType": "uint256",
          "name": "",
          "type": "uint256"
        }
      ],
      "stateMutability": "view",
      "type": "function"
    },
    {
      "inputs": [
        {
          "internalType": "uint256",
          "name": "",
          "type": "uint256"
        }
      ],
      "name": "senryus",
      "outputs": [
        {
          "internalType": "address",
          "name": "owner",
          "type": "address"
        },
        {
          "internalType": "uint256",
          "name": "id",
          "type": "uint256"
        },
        {
          "internalType": "string",
          "name": "poet",
          "type": "string"
        },
        {
          "internalType": "string",
          "name": "first",
          "type": "string"
        },
        {
          "internalType": "string",
          "name": "second",
          "type": "string"
        },
        {
          "internalType": "string",
          "name": "end",
          "type": "string"
        },
        {
          "internalType": "uint256",
          "name": "likeCount",
          "type": "uint256"
        }
      ],
      "stateMutability": "view",
      "type": "function"
    }
  ],
  "bytecode": "0x608060405234801561001057600080fd5b506111ba806100206000396000f3fe608060405234801561001057600080fd5b50600436106100625760003560e01c8063118e7d2f1461006757806315acb8191461009d5780633e51a2e5146100cd5780636226e118146100e9578063893b92b614610119578063be1c766b14610135575b600080fd5b610081600480360381019061007c9190610c46565b610153565b6040516100949796959493929190610d4b565b60405180910390f35b6100b760048036038101906100b29190610b1e565b6103e5565b6040516100c49190610dd6565b60405180910390f35b6100e760048036038101906100e29190610b83565b6105e2565b005b61010360048036038101906100fe9190610b47565b6107f6565b6040516101109190610ec8565b60405180910390f35b610133600480360381019061012e9190610c46565b610827565b005b61013d610912565b60405161014a9190610ec8565b60405180910390f35b6000818154811061016357600080fd5b90600052602060002090600702016000915090508060000160009054906101000a900473ffffffffffffffffffffffffffffffffffffffff16908060010154908060020180546101b29061100c565b80601f01602080910402602001604051908101604052809291908181526020018280546101de9061100c565b801561022b5780601f106102005761010080835404028352916020019161022b565b820191906000526020600020905b81548152906001019060200180831161020e57829003601f168201915b5050505050908060030180546102409061100c565b80601f016020809104026020016040519081016040528092919081815260200182805461026c9061100c565b80156102b95780601f1061028e576101008083540402835291602001916102b9565b820191906000526020600020905b81548152906001019060200180831161029c57829003601f168201915b5050505050908060040180546102ce9061100c565b80601f01602080910402602001604051908101604052809291908181526020018280546102fa9061100c565b80156103475780601f1061031c57610100808354040283529160200191610347565b820191906000526020600020905b81548152906001019060200180831161032a57829003601f168201915b50505050509080600501805461035c9061100c565b80601f01602080910402602001604051908101604052809291908181526020018280546103889061100c565b80156103d55780601f106103aa576101008083540402835291602001916103d5565b820191906000526020600020905b8154815290600101906020018083116103b857829003601f168201915b5050505050908060060154905087565b60606000600160008473ffffffffffffffffffffffffffffffffffffffff1673ffffffffffffffffffffffffffffffffffffffff16815260200190815260200160002080549050905060008167ffffffffffffffff811115610470577f4e487b7100000000000000000000000000000000000000000000000000000000600052604160045260246000fd5b60405190808252806020026020018201604052801561049e5781602001602082028036833780820191505090505b50905060005b828110156105d7576000600160008773ffffffffffffffffffffffffffffffffffffffff1673ffffffffffffffffffffffffffffffffffffffff1681526020019081526020016000208281548110610525577f4e487b7100000000000000000000000000000000000000000000000000000000600052603260045260246000fd5b906000526020600020015490506000818154811061056c577f4e487b7100000000000000000000000000000000000000000000000000000000600052603260045260246000fd5b9060005260206000209060070201600101548383815181106105b7577f4e487b7100000000000000000000000000000000000000000000000000000000600052603260045260246000fd5b6020026020010181815250505080806105cf9061106f565b9150506104a4565b508092505050919050565b60003390506000808054905090506000806040518060e001604052808573ffffffffffffffffffffffffffffffffffffffff168152602001848152602001868152602001898152602001888152602001878152602001838152509050600081908060018154018082558091505060019003906000526020600020906007020160009091909190915060008201518160000160006101000a81548173ffffffffffffffffffffffffffffffffffffffff021916908373ffffffffffffffffffffffffffffffffffffffff1602179055506020820151816001015560408201518160020190805190602001906106d79291906109e9565b5060608201518160030190805190602001906106f49291906109e9565b5060808201518160040190805190602001906107119291906109e9565b5060a082015181600501908051906020019061072e9291906109e9565b5060c082015181600601555050600160008573ffffffffffffffffffffffffffffffffffffffff1673ffffffffffffffffffffffffffffffffffffffff1681526020019081526020016000208390806001815401808255809150506001900390600052602060002001600090919091909150557f7204a004bf76b5a04340cfa346cb7b3e046771ff3acafa8afa5d9719ece2813688888888876040516107d8959493929190610e59565b60405180910390a16107ec8888888861091e565b5050505050505050565b6001602052816000526040600020818154811061081257600080fd5b90600052602060002001600091509150505481565b60008181548110610861577f4e487b7100000000000000000000000000000000000000000000000000000000600052603260045260246000fd5b906000526020600020906007020160060160008154809291906108839061106f565b919050555060008082815481106108c3577f4e487b7100000000000000000000000000000000000000000000000000000000600052603260045260246000fd5b90600052602060002090600702016006015490507fe9618dee4847f97bbab919b2372b092b1f145a6811ff0b4e24c14f49b29c6003816040516109069190610ec8565b60405180910390a15050565b60008080549050905090565b6109ba848484846040516024016109389493929190610df8565b6040516020818303038152906040527fde68f20a000000000000000000000000000000000000000000000000000000007bffffffffffffffffffffffffffffffffffffffffffffffffffffffff19166020820180517bffffffffffffffffffffffffffffffffffffffffffffffffffffffff83818316178352505050506109c0565b50505050565b60008151905060006a636f6e736f6c652e6c6f679050602083016000808483855afa5050505050565b8280546109f59061100c565b90600052602060002090601f016020900481019282610a175760008555610a5e565b82601f10610a3057805160ff1916838001178555610a5e565b82800160010185558215610a5e579182015b82811115610a5d578251825591602001919060010190610a42565b5b509050610a6b9190610a6f565b5090565b5b80821115610a88576000816000905550600101610a70565b5090565b6000610a9f610a9a84610f08565b610ee3565b905082815260208101848484011115610ab757600080fd5b610ac2848285610fca565b509392505050565b600081359050610ad981611156565b92915050565b600082601f830112610af057600080fd5b8135610b00848260208601610a8c565b91505092915050565b600081359050610b188161116d565b92915050565b600060208284031215610b3057600080fd5b6000610b3e84828501610aca565b91505092915050565b60008060408385031215610b5a57600080fd5b6000610b6885828601610aca565b9250506020610b7985828601610b09565b9150509250929050565b60008060008060808587031215610b9957600080fd5b600085013567ffffffffffffffff811115610bb357600080fd5b610bbf87828801610adf565b945050602085013567ffffffffffffffff811115610bdc57600080fd5b610be887828801610adf565b935050604085013567ffffffffffffffff811115610c0557600080fd5b610c1187828801610adf565b925050606085013567ffffffffffffffff811115610c2e57600080fd5b610c3a87828801610adf565b91505092959194509250565b600060208284031215610c5857600080fd5b6000610c6684828501610b09565b91505092915050565b6000610c7b8383610d2d565b60208301905092915050565b610c9081610f8e565b82525050565b6000610ca182610f49565b610cab8185610f6c565b9350610cb683610f39565b8060005b83811015610ce7578151610cce8882610c6f565b9750610cd983610f5f565b925050600181019050610cba565b5085935050505092915050565b6000610cff82610f54565b610d098185610f7d565b9350610d19818560208601610fd9565b610d2281611145565b840191505092915050565b610d3681610fc0565b82525050565b610d4581610fc0565b82525050565b600060e082019050610d60600083018a610c87565b610d6d6020830189610d3c565b8181036040830152610d7f8188610cf4565b90508181036060830152610d938187610cf4565b90508181036080830152610da78186610cf4565b905081810360a0830152610dbb8185610cf4565b9050610dca60c0830184610d3c565b98975050505050505050565b60006020820190508181036000830152610df08184610c96565b905092915050565b60006080820190508181036000830152610e128187610cf4565b90508181036020830152610e268186610cf4565b90508181036040830152610e3a8185610cf4565b90508181036060830152610e4e8184610cf4565b905095945050505050565b600060a0820190508181036000830152610e738188610cf4565b90508181036020830152610e878187610cf4565b90508181036040830152610e9b8186610cf4565b90508181036060830152610eaf8185610cf4565b9050610ebe6080830184610d3c565b9695505050505050565b6000602082019050610edd6000830184610d3c565b92915050565b6000610eed610efe565b9050610ef9828261103e565b919050565b6000604051905090565b600067ffffffffffffffff821115610f2357610f22611116565b5b610f2c82611145565b9050602081019050919050565b6000819050602082019050919050565b600081519050919050565b600081519050919050565b6000602082019050919050565b600082825260208201905092915050565b600082825260208201905092915050565b6000610f9982610fa0565b9050919050565b600073ffffffffffffffffffffffffffffffffffffffff82169050919050565b6000819050919050565b82818337600083830152505050565b60005b83811015610ff7578082015181840152602081019050610fdc565b83811115611006576000848401525b50505050565b6000600282049050600182168061102457607f821691505b60208210811415611038576110376110e7565b5b50919050565b61104782611145565b810181811067ffffffffffffffff8211171561106657611065611116565b5b80604052505050565b600061107a82610fc0565b91507fffffffffffffffffffffffffffffffffffffffffffffffffffffffffffffffff8214156110ad576110ac6110b8565b5b600182019050919050565b7f4e487b7100000000000000000000000000000000000000000000000000000000600052601160045260246000fd5b7f4e487b7100000000000000000000000000000000000000000000000000000000600052602260045260246000fd5b7f4e487b7100000000000000000000000000000000000000000000000000000000600052604160045260246000fd5b6000601f19601f8301169050919050565b61115f81610f8e565b811461116a57600080fd5b50565b61117681610fc0565b811461118157600080fd5b5056fea2646970667358221220db64b251ab66e76c6cfb9401900570f1315b36db40f9c7c25b467457995e0c1b64736f6c63430008040033",
  "linkReferences": {},
  "deployedLinkReferences": {}
}